:08000000803102288731FC2F3A
:100E84004F0196019701980199019A019B0108006D
:100E9400623051018D008F0191010630930092015F
:100EA40008008731422787318731C227873187314C
:100EB4004A2787310800873153278731F301F4012A
:100EC400740887318B27873140018E008F000B30E7
:100ED400F2002630F1005E30890B6E2FF10B6E2F7D
:100EE400F20B6E2F0130F1007108F4070A3074021E
:100EF400031C7D2F7E2F622F0130F1007108F30750
:100F04000A307302031C872F882F612F602F8031D2
:100F14000228F000A12F3F30C12F0630C12F5B30D3
:100F2400C12F4F30C12F6630C12F6D30C12F7D309E
:100F3400C12F0730C12F7F30C12F6F30C12F7008F0
:100F4400003A03198D2F013A03198F2F033A03191D
:100F5400912F013A0319932F073A0319952F013A58
:100F64000319972F033A0319992F013A03199B2F59
:100F74000F3A03199D2F013A03199F2FC12F08001F
:100F840040019A0199019601970198010730950053
:100F9400FF309100FF309200803093008030940045
:100FA400FF307E01D900FF30CE00FF30C300073090
:100FB400E400FF30B800DA01E501C401B901CF0152
:100FC400E601BA01C501D001DB01FF30BB00FF30EF
:100FD400C600FF30D100FF30DC000730E700FF30EF
:100FE400BC00FF30C700FF30D200FF30DD000F30FF
:0C0FF400E8000800F401400187315D2F87
:020000040001F9
:0A000E00EC3FFF3F9F3FFF3FFF3F25
:00000001FF
