:08000000803102288731FB2F3B
:100ED4004F0196019701980199019A019B0108001D
:100EE400623051018D008F0191010630930092010F
:100EF400080087316A278731873185278731873111
:100F040072278731080040019A01990196019701DF
:100F1400980107309500FF309100FF309200FE30B9
:100F24009300FF309400FD307E01D900FB30CE00E9
:100F3400FF30C3000730E400FF30B800DA01E501F8
:100F4400C401B901CF01E601BA01C501D001DB0139
:100F5400FF30BB00FF30C600FF30D100FF30DC00A3
:100F64000730E700FF30BC00FF30C700FF30D2007D
:100F7400FF30DD000F30E800080087317B27873120
:100F840040018F18C62FC72FC92FF101F10A0E197E
:100F9400CC2FCD2FCF2FF001F00A71080319D32FD6
:100FA400D42FD82F8F18D72FD82FE12F70080319DB
:100FB400DC2FDD2FC22F0E1DE02FE12FC22F710871
:100FC4000319E52FE62FE72FF10170080319EB2F22
:100FD400EC2FED2FF00103100E1C03140318F32F54
:100FE400F62F40010E14F82F40010E10C22F80314D
:0C0FF4000228F001F10140018731BF2FFD
:020000040001F9
:0A000E00EC3FFF3F9F3FFF3FFF3F25
:00000001FF
