:08000000803102288731F92F3D
:100E4C004F0196019701980199019A019B010800A5
:100E5C00623051018D008F01910106309300920197
:100E6C0008008731262787318731782787318731EA
:100E7C002E2787310800F400572F3F30772F06308C
:100E8C00772F5B30772F4F30772F6630772F6D3081
:100E9C00772F7D30772F0730772F7F30772F6F307C
:100EAC00772F7408003A0319432F013A0319452F81
:100EBC00033A0319472F013A0319492F073A03192B
:100ECC004B2F013A03194D2F033A03194F2F013AB7
:100EDC000319512F0F3A0319532F013A0319552FA8
:100EEC00772F080040019A0199019601970198010A
:100EFC0007309500FF309100FF3092009301803055
:100F0C009400FF307E01D900FF30CE00FC30C300CE
:100F1C000730E400FF30B800DA01E501C401B90183
:100F2C00CF01E601BA01C501D001DB01FF30BB00E6
:100F3C00FF30C600FF30D100FF30DC000730E70087
:100F4C00FF30BC00FF30C700FF30D200FF30DD00A7
:100F5C000F30E8000800873137278731F601003061
:100F6C0087314127873140018F008E000D18BF2F2C
:100F7C00C02FC22FF101F10A8D18C52FC62FC82F13
:100F8C00F001F00A71080319CC2FCD2FDD2F0D1CA9
:100F9C00D02FD12FDD2FF10109307602031CD72F72
:100FAC00D82FD92FF72F0130F5007508F6077008E8
:100FBC000319E12FE22FEF2F8D1CE52FE62FEF2FDA
:100FCC00F0017608031DEB2FEC2FED2FD82F0130FD
:100FDC00F602760887314127873140018F008E0059
:100FEC00BC2F80310228F001F101F201F301400124
:040FFC008731B12F59
:020000040001F9
:0A000E00EC3FFF3F9F3FFF3FFF3F25
:00000001FF
